:020000040800F2
:10000000380600209D010008CF1E0008A91C00082A
:10001000CD1E0008D50200086D2700080000000072
:10002000000000000000000000000000D31E0008D7
:100030009503000800000000D11E0008831F00087F
:10004000B7010008B7010008B7010008B7010008B0
:10005000B7010008B7010008B7010008B7010008A0
:10006000B7010008B7010008B7010008B701000890
:10007000B7010008B7010008B7010008B701000880
:10008000D9020008B7010008B7010008B70100084D
:10009000B7010008B7010008B7010008B701000860
:1000A000B7010008B7010008B7010008B701000850
:1000B0002D200008B7010008B7010008B7010008AB
:1000C000B7010008B7010008B7010008B701000830
:1000D000B70100085527000861270008B70100088C
:1000E000B7010008B7010008B7010008B701000810
:1000F000B7010008B7010008B7010008B701000800
:10010000B7010008B7010008B7010008B7010008EF
:10011000B7010008B7010008B7010008B7010008DF
:10012000B7010008B7010008E5020008B7010008A0
:10013000B7010008B7010008B7010008B7010008BF
:10014000B7010008B7010008B7010008B7010008AF
:10015000B7010008B7010008B7010008B70100089F
:10016000B7010008B7010008B7010008B70100088F
:10017000B7010008B7010008B7010008000000003F
:10018000B7010008B7010008DFF80CD000F090F8C4
:1001900000480047A129000838060020064880478B
:1001A00006480047FEE7FEE7FEE7FEE7FEE7FEE75C
:1001B000FEE7FEE7FEE7FEE71D20000889010008D4
:1001C0002DE9F05F0546002092469B46884606468C
:1001D000814640241BE0284641464746224600F01F
:1001E00057F853465A46C01A914110D31146184643
:1001F000224600F03EF82D1A67EB01084F462246D2
:100200000120002100F035F817EB00094E41201EB7
:10021000A4F10104DFDC484631462A464346BDE8E6
:10022000F09FD2B201E000F8012B491EFBD27047CB
:100230000022F6E710B513460A4604461946FFF7B2
:10024000F0FF204610BD30B50B46014600202022AD
:10025000012409E021FA02F59D4205D303FA02F5D3
:10026000491B04FA02F52844151EA2F10102F1DC33
:1002700030BD202A04DB203A00FA02F1002070474A
:100280009140C2F1200320FA03F3194390407047D4
:10029000202A04DB203A21FA02F00021704721FADB
:1002A00002F3D040C2F12002914008431946704742
:1002B000064C074D06E0E06840F0010394E80700B3
:1002C00098471034AC42F6D3FFF762FF382C000891
:1002D000582C0008FEE70000014800F0B9B8000003
:1002E000A4010020014800F0B3B800004401002040
:1002F00001681823CAB2103AB2FBF3F2054B6FF350
:100300000901032A9B5CC36500D9091D8165084664
:1003100070470000182C000810B5014600208B69BA
:100320008A6A4FF0C07453B1B3F5005F15D072B153
:10033000012A0CD0022A0AD0032A09D104E01AB1FA
:10034000012A06D0022A03D1C96AC90100D50120B9
:1003500010BDC96AA142FAD010BD002AF7D0012A07
:10036000F2D0022AF3D0032AF3D010BD30B50468CE
:10037000256825F480252560046863608368402B28
:10038000036803D099600068C26030BD9A6000685D
:10039000C16030BD704772B6FEE72DE9F0410446FA
:1003A000876D00F0D1FA064694F835000025022842
:1003B00006D08020606584F834500120BDE8F081CB
:1003C0002068016821F0160101602068416921F070
:1003D00080014161206C08B9A06C20B120680168DF
:1003E00021F0080101602068016821F0010101602D
:1003F0000CE000F0A9FA801B052807D920206065D1
:10040000032084F8350084F83450D7E7206800686A
:10041000C007EED194F85C103F208840B8600120FE
:1004200084F8350084F834500020C7E790F8351080
:10043000022903D08021416501207047052180F801
:1004400035100068016821F001010160002070474B
:100450002DE9F84304464FF00009CDF800906348B9
:100460004FF41651A56D0068B0FBF1F72E6894F8B3
:100470005C10082000FA01F131420FD021680A68AF
:1004800052070BD50A6822F004020A6094F85C1047
:100490008840A860606D40F00100606594F85C10D1
:1004A0004FF0010808FA01F0304208D0216849698C
:1004B000090604D5A860606D40F00200606594F8FC
:1004C0005C1004208840304208D021680968890700
:1004D00004D5A860606D40F00400606594F85C107D
:1004E00010208840304218D021680968090714D5C7
:1004F000A86020680168490304D50068000308D596
:10050000A16C07E00168C90503D4016821F0080166
:100510000160216C09B12046884794F85C102020C6
:100520008840304231D021680968C9062DD5A860BD
:1005300094F8350005282068016806D0490347D59E
:10054000006800031DD4616C1CE021F016010160FD
:100550002068416921F080014161206C08B9A06CDC
:1005600020B12068016821F00801016094F85C1056
:100570003F208840A86084F8358084F83490216D4D
:100580001FE0E16B09B120468847606D00282BD041
:10059000606DC00714D0052084F83500206801681C
:1005A00021F0010101600098401C0090B84203D87E
:1005B00020680068C007F6D184F8358084F834904C
:1005C000E16C002910D001B02046BDE8F043084797
:1005D0000168C905D5D4016821F01001016084F8D3
:1005E000358084F83490CCE7BDE8F8831C00002007
:1005F0002DE9F041044600F0A7F906465CB102205F
:1006000084F83500002584F834502068016821F012
:10061000010101600DE00120BDE8F08100F094F9D6
:10062000801B052805D920206065032084F835004B
:10063000F2E720680068C007F0D1226811682048FE
:100640000140D4E901031843D4E903363343184386
:1006500063691843A3691843E3691843236A18437D
:100660000843616A042903D1D4E90B1319430843F1
:10067000106020684069666A20F0070130460E432A
:10068000012704280CD1A06A0643E06A40B1204645
:10069000FFF742FE20B14020606584F83570BAE76C
:1006A000206846612046FFF723FE94F85C203F2136
:1006B00091408160656584F835700020ACE70000EA
:1006C0003F8010F02DE9F0410446866D90F834002B
:1006D000002501280DD0012084F8340094F83570ED
:1006E0000020012F07D084F8340002252846BDE8F9
:1006F000F0810220FBE7022784F835706065204610
:10070000FFF734FE94F85C103F208840B06020680A
:10071000016841F016010160206C20B12068016879
:1007200041F0080101602068016841F001010160A9
:10073000DCE7000070B5044600F006F90546601CD1
:1007400002D004480078044400F0FEF8401BA042A8
:10075000FAD370BD100000202DE9F84FDFF8BCA1DE
:100760000022012503264FF00F090AF1040BAAF11C
:10077000040E00BF0B6805FA02F42340A34270D1B7
:100780000F7907F00307012F01D0022F16D18768D8
:100790004FEA420806FA08FC27EA0C07D1F80CC019
:1007A0000CFA08FC4CEA070CC0F808C04768A743DD
:1007B0000C79C4F3001494403C4344600C79E44346
:1007C000A4070AD0C4684FEA420C06FA0CF7BC43EF
:1007D0008F6807FA0CF72743C7600C7904F003040D
:1007E000022C12D1D40800EB840CDCF8204057070F
:1007F000FF0E09FA07F824EA0804D1F8108008FA75
:1008000007F848EA0408CCF8208004684FEA420C54
:1008100006FA0CF7BC430F7907F0030707FA0CF749
:10082000274307604C6814F4403F70D03C4C276865
:1008300047F480472760246822F0030704F48044CB
:100840000094384C07EB040CDCF8084897074FEA93
:10085000177809FA08F7BC43334FB84202D1002792
:1008600024E054E0314FB84201D101271EE0304F5F
:10087000B84201D1022719E02E4FB84201D1032717
:1008800014E02D4FB84201D104270FE02B4FB8429E
:1008900001D105270AE02A4FB84201D1062705E019
:1008A000284FB84201D1072700E0082707FA08F7C8
:1008B0002743CCF80878DAF800405746D1F804C04E
:1008C0009C435FEACC2C00D51C433C60DBF8004025
:1008D0005F46D1F804C09C435FEA8C2C00D51C43D2
:1008E0003C60DEF800407746D1F804C09C435FEAE4
:1008F0008C3C00D51C433C60084F083F3C68D1F855
:1009000004C09C435FEACC3C00D51C433C60521CB5
:10091000102AFFF42FAFBDE8F88F0000083C01401B
:100920004438024000300140000002400004024010
:1009300000080240000C0240001002400014024077
:1009400000180240001C0240014880687047000007
:1009500010000020024881680278114481607047CD
:10096000100000200B4810B5016841F400710160CF
:10097000016841F480610160016841F480710160A7
:10098000032000F06FF80F2000F006F800F024F8C4
:10099000002010BD003C024070B50D4D04464FF4E0
:1009A0007A712878B1FBF0F00A490968B1FBF0F0E0
:1009B00000F00AFB48B9102C07D200222146501E35
:1009C00000F030F800206C6070BD012070BD0000A8
:1009D000100000201C0000200A4808B5016841F4FE
:1009E00080410160006800F4804000900548001FCD
:1009F000016841F080510160006800F08050009073
:100A000008BD000044380240002809DB00F01F0246
:100A1000012191404009800000F1E020C0F8001160
:100A200070470000F0B40E4B1B680C46C3F3022362
:100A3000C3F10705042D00D90425191D072901D28A
:100A4000002300E0DB1E012606FA05F1491E2140C5
:100A500099409E40761E16403143F0BC01F098BE8E
:100A60000CED00E0064900F0070208684FF6FF03AE
:100A7000184040EA0220034A104308607047000013
:100A80000CED00E00000FA052DE9F0470E460500E8
:100A900065D0DFF81481D8F80000F7B200F0070045
:100AA000B04207D288F80070D8F8000000F00700C4
:100AB000B04254D128683D4C810712D5400703D578
:100AC000206840F4E05020602878000703D52068B3
:100AD00040F4604020602068A96820F0F0000843DE
:100AE00020602878C0072DD030496868083901286F
:100AF00012D0022813D0032811D0096889070029D1
:100B00002DDA216821F0030101432160FFF71CFF6A
:100B1000814641F2883A0EE009688903EFE70968E7
:100B20008901ECE7FFF710FFA0EB0901514502D95D
:100B30000320BDE8F0872068696800F00C00B0EB86
:100B4000810FEFD1D8F80010404601F00701B14203
:100B500007D90770006800F00700B04201D00120FB
:100B6000E7E72878400705D52068E96820F4E050D9
:100B7000084320602878000706D52068296920F4FA
:100B8000604040EAC100206000F038F82168084A5F
:100B9000C1F30311515CC84006490860064800686B
:100BA000FFF7FAFE0020C4E7003C0240083802408C
:100BB000202C00081C0000201400002004480549D7
:100BC00000680968044AC1F38221515CC84070473B
:100BD0001C00002008380240302C00080448054959
:100BE00000680968044AC1F34231515CC84070474B
:100BF0001C00002008380240302C0008154810B5B1
:100C0000006810F00C02144813D04110042A0FD0D1
:100C1000082A0ED10F4C241F2268236802F03F02DD
:100C20005B0207D52068C0F38810A0FB010106E035
:100C3000084610BD2168C1F38811A1FB0001002303
:100C4000FFF7BEFA2168C1F30141491C4900B0FB1E
:100C5000F1F010BD083802400024F4002DE9F84FEF
:100C600004006ED02078DFF84C93C007A9F104058A
:100C70004AD009F104000168C1F38101012908D0BB
:100C80000068C0F3810002280AD1D9F800004002B0
:100C900006D52868800337D560680028E1D033E0A6
:100CA0006068B0F5803F10D0B0F5A02F286810D054
:100CB00020F480302860286820F480202860606854
:100CC000A8B1FFF741FE06460DE0286840F48030E9
:100CD000F4E740F480202860F7E700BFFFF734FE18
:100CE000801B642873D828688003F7D50CE0FFF7D1
:100CF0002BFE064605E000BFFFF726FE801B64289A
:100D0000F0D828688003F7D42078DFF8AC82800719
:100D10004FF0000A3ED5A748001D016811F00C0FE6
:100D200008D00068C0F3810002280BD1D9F8000078
:100D3000400207D42868800716D5E068012800D152
:100D400012E033E1E068B8B10120C8F80000FFF715
:100D5000FBFD064605E000BFFFF7F6FD801B0228FD
:100D6000C0D828688007F7D52868216920F0F800E6
:100D700040EAC10028600DE0C8F800A0FFF7E4FDDC
:100D8000064604E0FFF7E0FD801B02281FD8286814
:100D90008007F7D42078000722D5864F87486169FD
:100DA000703771B101210160FFF7CEFD064604E006
:100DB000FFF7CAFD801B022809D838688007F7D5DD
:100DC0000EE0C0F800A0FFF7BFFD064605E082E098
:100DD000FFF7BAFD801B02287DD838688007F7D45A
:100DE0002078400768D5DFF8CCB100270BF13C0B29
:100DF000DBF80000C0000BD4DBF8001041F080519C
:100E0000CBF80010DBF80000012700F080500090C4
:100E10006B4E3068C00510D4306840F4807030608C
:100E2000FFF792FD009005E0FFF78EFD0099401A54
:100E3000022850D83068C005F6D55E4EA0686C36E2
:100E400001280FD00528306810D020F00100306054
:100E5000306820F004003060A068B8B1FFF774FD7E
:100E600000900FE0306840F00100F4E740F004002B
:100E70003060F7E7FFF768FD0099411A41F28830CA
:100E8000814266D830688007F4D50EE0FFF75CFD3C
:100E9000009007E0FFF758FD0099411A41F28830B1
:100EA000814256D830688007F4D42FB1DBF80010A7
:100EB00021F08051CBF80010A069C8B33D49091D4D
:100EC0000968C1F3810102294AD00228504607D09F
:100ED000C8F8600000E03CE0FFF736FD04463BE068
:100EE0004746C8F86000FFF72FFD064605E000BF43
:100EF000FFF72AFD801B02282BD828688001F7D431
:100F0000D4E907010843A16A2E4A490802EB0141CE
:100F1000626A41EA8211084394F82C1040EA0161A8
:100F2000C9F8001001203866FFF70EFD044606E000
:100F30003EE000BFFFF708FD001B022809D8286823
:100F40008001F7D534E000BFFFF7FEFC001B02284C
:100F500002D90320BDE8F88F28688001F4D427E087
:100F60000128F7D0D9F80000E26900F4800191422D
:100F70001CD1226A00F03F01914217D147F6C0719F
:100F8000626A0140B1EB821F10D1A26A4FF0FF33B9
:100F900000F4403103EB5202B1EB024F06D194F85A
:100FA0002C1000F07060B0EB016F01D00120D1E790
:100FB0000020CFE70438024000004742800E47423D
:100FC000007000400000FFFF10B5401EB0F1807FB0
:100FD00001D3012010BD4FF0E02460610F216017A4
:100FE00001F0D6FB0020A06107202061002010BD89
:100FF0007047704770B590F83C20012A32D0012428
:1010000080F83C40022280F83D2003685A689D68C1
:1010100022F070060A6832435A60134B02689A4203
:1010200014D0B2F1804F11D0104B9A420ED0104B19
:101030009A420BD00F4B9A4208D00F4B9A4205D0E0
:101040000E4B9A4202D00E4B9A4204D1496825F0C9
:1010500080031943916080F83D40002180F83C10E6
:10106000084670BD022070BD000001400004004031
:1010700000080040000C0040000401400040014016
:101080000018004010B5040003D094F83D0010B1E2
:1010900007E0012010BD002084F83C00204600F04D
:1010A0001FF8022084F83D00211D206800F0C4FFD5
:1010B000012084F8460084F83E0084F83F0084F85C
:1010C000400084F8410084F8420084F8430084F82A
:1010D000440084F8450084F83D00002010BD000065
:1010E00008B501681048B1F1804F0BD00F4A91420A
:1010F00007D1016841F004010160006800F00400BC
:10110000009008BD016841F0010101600068002203
:1011100000F00100009011461C20FFF783FCBDE8A1
:1011200008401C20FFF770BC403802400008004017
:1011300070B5044690F83C000025012817D0012620
:1011400084F83C60022084F83D002068826822F028
:10115000770222F47F4282600868502838D00DDC84
:1011600020284FD005DC90B3102811D14AE002208E
:1011700070BD302846D040280AD13BE060282FD0EF
:1011800070280DD0B0F5805F03D0B0F5005F12D0AD
:10119000012584F83D60002084F83C00284670BD9D
:1011A000CB68D1E90121206800F0BFFF2068816889
:1011B00041F0770109E0CB68D1E90121206800F016
:1011C000B4FF2068816841F480418160E1E719E063
:1011D000CA684968206801F07DF85021206806E05F
:1011E000CA684968206801F086F86021206800F02C
:1011F000A6FFCEE7CA684968206801F06BF8402175
:101200002068F4E7226801461046F0E770472DE9B0
:10121000F04104460068C66805694FF00007A90759
:1012200013D5B10711D5F91E01610120207720687F
:1012300080698007204602D0FFF7E8FF04E000F055
:10124000A9F8204600F03BF92777680716D5700704
:1012500014D521686FF0040008610220207720680F
:10126000806910F4407F204602D0FFF7CFFF04E0F2
:1012700000F090F8204600F022F92777280715D5CE
:10128000300713D521686FF008000861042020772B
:101290002068C0698007204602D0FFF7B7FF04E04E
:1012A00000F078F8204600F00AF92777E80616D50E
:1012B000F00614D521686FF010000861082020772F
:1012C0002068C06910F4407F204602D0FFF79EFFDF
:1012D00004E000F05FF8204600F0F1F82777E80717
:1012E00008D0F00706D021686FF0010008612046A1
:1012F00000F04AF9280608D5300606D521686FF0B7
:10130000800008612046FFF773FE680608D5700666
:1013100006D521686FF040000861204600F098F97A
:10132000A8060AD5B00608D521686FF0200008612C
:101330002046BDE8F041FFF75CBEBDE8F08100004B
:1013400010B586B0044614216846FEF771FF0E49B9
:101350002068884215D10D480021026842F0080239
:101360000260006800F0080005904FF4E040009033
:101370000220CDE90101CDE9031069460448FFF7D9
:10138000EBF906B010BD0000000800403038024004
:10139000000C0240704770B5044690F83C000026EF
:1013A0000D4601280FD0012084F83C006AB1042AC0
:1013B0001DD0082A2FD00C2A3FD00126002084F807
:1013C0003C00304670BD022070BD206800F0C0FEB9
:1013D0002068816941F0080181612068816921F0FC
:1013E00004018161206881692A69114311E0206844
:1013F00000F0DEFE2068816941F4006181612068AF
:10140000816921F480618161206881692A6941EAEA
:1014100002218161D2E7206800F000FF2068C169E5
:1014200041F00801C1612068C16921F00401C16176
:101430002068C1692A69114311E0206800F022FF89
:101440002068C16941F40061C1612068C16921F46B
:101450008061C1612068C1692A6941EA0221C161D4
:10146000ACE710B5040003D094F83D0010B107E0DC
:10147000012010BD002084F83C00204600F01EF83A
:10148000022084F83D00211D206800F0D5FD0120D8
:1014900084F8460084F83E0084F83F0084F8400059
:1014A00084F8410084F8420084F8430084F8440042
:1014B00084F8450084F83D00002010BD7047704757
:1014C00010B50446022249B104290ED0082913D0D0
:1014D00094F84100012816D0012010BD94F83E0078
:1014E0000128F9D184F83E200FE094F83F0001284C
:1014F000F2D184F83F2008E094F840000128EBD1B5
:1015000084F8402001E084F841200122206800F0A6
:10151000FFFD16492068164A884201D0904203D147
:10152000436C43F4004343642068884213D0B0F115
:10153000804F10D00F4988420DD00F4988420AD001
:101540000E49884207D0904205D00D49884202D00A
:101550000C49884204D1816801F00701062903D0B3
:10156000016841F001010160002010BD0000014050
:10157000000401400004004000080040000C00404E
:10158000004001400018004010B50068B0F1804FE5
:1015900032D11A4C207801282ED119A001F0E8F898
:1015A00000202070014614238722184800F09AFC7E
:1015B000142387220421154800F094FC1423872269
:1015C0000821124800F08EFC11A001F0D1F8134858
:1015D000807801280AD002280AD003280AD00428DB
:1015E0000AD10FA0BDE8104001F0C2B80FA0F9E782
:1015F00011A0F7E713A0F5E710BD00000D000020D3
:101600006368616E6765210A000000006C000020BD
:10161000CAB6B1F0BEC0D5FDA3A10A0000000020EB
:10162000D3A6CEAAB5E7B3D8A3A10A00D3A6CEAA63
:10163000D6BDB0E5A3A10A00D3A6CEAAB7CFD6BD2A
:10164000A3A10A00D3A6CEAAC6BFD7D3A3A10A00DE
:101650007047704770470000F8B501680446086895
:10166000CA684B6910F00F0F4FF0000559D003F016
:10167000010602F49077374365D0C10705D0D10544
:1016800003D5616C41F001016164410705D5D907BB
:1016900003D0616C41F002016164810705D5D9076F
:1016A00003D0616C41F004016164010707D502F0C9
:1016B0002001314303D0616C41F008016164616C29
:1016C00000293AD0800604D5900602D5204600F0C5
:1016D000D8FE20684069616CC0F38010090700D40F
:1016E00060B3204600F098FE20684069400621D58E
:1016F0002068143050E8001F21F0400140E800123B
:10170000002AF5D1E06BA8B16E490165E06BFEF7E8
:101710008DFE002811D0E06B016D01B0BDE8F040F6
:10172000084783060FD593060DD52046BDE8F8403F
:1017300000F0A7BE2046FFF78DFFF8BD2046FFF75B
:1017400089FF6564F8BD266B2023012E7DD1C60676
:101750007BD5D60679D508684868009048694FF06F
:101760000206400641D5E16B086840680004000CA1
:10177000E8D0A28D8242E5D9E085C869B0F5807FC6
:101780002DD020680C3050E8001F21F4807140E813
:101790000012002AF5D12068143050E8001F21F013
:1017A000010140E80012002AF5D12068143050E809
:1017B000001F21F0400140E80012002AF5D184F812
:1017C0004230256320680C3050E8001F21F01001E2
:1017D00040E80012002AF5D1E06BFEF7DEFD6663FB
:1017E000A08DE18D401A81B22AE0A08DE18D401AD2
:1017F00081B2E08D0028A5D00029A3D022680C3248
:1018000052E8000F20F4907042E80007002FF5D155
:101810002068143050E8002F22F0010240E8002731
:10182000002FF5D184F84230256320680C3050E851
:10183000002F22F0100240E80023002BF5D1666350
:101840002046FFF706FFF8BDFFE705062BD5150676
:1018500029D594F841002128F5D1A068B0F5805F22
:1018600001D12069B0B1206A411C21622168007851
:101870004860E08C401E0004000CE084E3D1206846
:10188000C16821F08001C1602068C16841F0400159
:10189000C160D8E7206A0088C0F308004860206A69
:1018A000801C2062E5E74006CDD55006CBD5CA683E
:1018B000204622F04002CA6084F8413000F0F3F97B
:1018C000C1E700001B23000870B5040004D094F8A1
:1018D0004100002510B106E0012070BD84F84050A1
:1018E000204600F023F8242084F841002068C168D5
:1018F00021F40051C160204600F024FE20680169F7
:1019000021F4904101612068416921F02A0141617F
:101910002068C16841F40051C1606564202084F8EA
:10192000410084F842006563002070BD2DE9F04756
:1019300086B0064614216846FEF77AFCDFF8188167
:1019400002223168002445480323454D97064FF095
:10195000070C4FF480694FF4807A414538D13F49F4
:101960001431D1F8008048F01008C1F800800968EF
:1019700001F010010591016841F00101016000686A
:10198000694600F00100059058028DE81500CDE988
:10199000033C2846FEF7E0FE334D32482860C5E997
:1019A0000174C5E903496C61C5E9064AB812C5E985
:1019B00008042846FEF71CFE08B1FEF7ECFCF563B0
:1019C000002211462520AE63FFF72CF825203DE0CC
:1019D000DFF8988041453BD120491031D1F8008093
:1019E00048F40038C1F80080096801F4003105911D
:1019F000016841F0010101600068694600F00100E2
:101A000005900C208DE81500CDE9033C2846FEF733
:101A1000A3FE154D164860352860C5E90174C5E977
:101A200003496C61C5E9064A4FF44030C5E9080432
:101A30002846FEF7DDFD08B1FEF7ADFCF563002298
:101A400011462620AE63FEF7EDFF2620FEF7DCFFF1
:101A500006B0BDE8F08700000010014030380240B9
:101A60000000024040640240440100200044004065
:101A70008860024090F84230202B01D0022070474D
:101A800021B11AB10023036300F0E2BD01207047C9
:101A90002DE9F041064637A000F06AFE364930686D
:101AA0000125364C884225D135A000F061FE35482D
:101AB0000178AA2919D14178BB2916D141795B292E
:101AC00013D190F80280C7780079607006212D4804
:101AD00000F000FA2C492DA000F04AFE63783A4647
:101AE00041462EA000F044FE2570062225493348C9
:101AF000FFF7C0FF32493068884238D1314E307824
:101B0000CC282DD1F078DD282AD17078012801D099
:101B100018B125E0A5702CA020E00020A0702DA019
:101B200000F026FEB078012806D0022808D003284D
:101B30000BD004280ED013E06570E57028A00DE0EE
:101B400002206070E57028A008E003206070E57056
:101B500027A003E004206070E57027A000F008FED5
:101B6000BDE8F041042217492548FFF783BFBDE8CF
:101B7000F0810000310A0000001001400A0000203E
:101B8000320A0000040000200402002053656E7435
:101B900020746F20424C453A2025730052656365DE
:101BA000697665643A20783D25642C20793D25646A
:101BB0002C2069643D25640A00000000B400002068
:101BC0000044004000000020424C45206973206F13
:101BD00066660000424C45206973206F6E0000006D
:101BE0006572726F72310A006572726F72320A002A
:101BF0006572726F72330A006572726F72340A0016
:101C0000FC00002070472DE9F843044690F841009D
:101C1000984616460D46202802D00220BDE8F883DB
:101C200085B17EB100206064212084F84100FEF778
:101C30008BFEA6848146E684A0682027B0F5805FED
:101C400002D003E00120E9E7206910B12E4600250B
:101C50000EE000260CE08021204600F041FDA8B9EE
:101C6000C6B116F8010B21684860E08C401EE08484
:101C7000E08C4B464FF00002CDF800800028EAD1FE
:101C80004FF04001204600F02BFD40B184F8417038
:101C90000320C3E735F8020BC0F30800E3E784F83C
:101CA00041700020BAE77047FEE70000114808B510
:101CB000016841F480010160016801F48001009134
:101CC000016841F4001101600068002200F4001076
:101CD000009011461020FEF7A5FE1020FEF794FE9E
:101CE000002211463A20FEF79DFEBDE808403A204A
:101CF000FEF78ABE303802400D4808B5016841F051
:101D000080010160016801F080010091016841F0EB
:101D100001010160016801F001010091016841F0D9
:101D200008010160006800F00800009008BD000094
:101D30003038024010B586B0002418480094019451
:101D40000294039404944FF080410594016040F2A2
:101D5000E731C0E9011444F29F11C0E90314802166
:101D60008161FFF78FF908B1FEF715FB4FF4805042
:101D7000009069460948FFF7DBF908B1FEF70BFB55
:101D80002020CDE9040404A90448FFF733F9002812
:101D900001D0FEF700FB06B010BD000024000020BB
:101DA00010B58EB000240794089409940A940B94FB
:101DB0001C2168460C94FEF73BFA27482549016030
:101DC0005321C0E9011444F61F61C0E903148021C6
:101DD0008161FFF757F908B1FEF7DDFA4FF4805043
:101DE000079007A91C48FFF7A3F908B1FEF7D3FA3B
:101DF0001948FFF736FB08B1FEF7CDFA0B940BA993
:101E000015480C94FFF7F6F808B1FEF7C4FA602005
:101E1000CDE900040294002269460F480494FFF7BC
:101E2000BAFA08B1FEF7B7FA042269460A48FFF782
:101E3000B2FA08B1FEF7AFFA082269460648FFF782
:101E4000AAFA08B1FEF7A7FA0348FFF779FA0EB02D
:101E500010BD0000000800406C0000200C4810B5C8
:101E60000A4901604FF416514160002181600C2243
:101E7000C160C0E904128161C161FFF725FD00283E
:101E800003D0BDE81040FEF786BA10BD0010014037
:101E9000B40000200C4810B50A4901604FF41651F7
:101EA0004160002181600C22C160C0E9041281619F
:101EB000C161FFF709FD002803D0BDE81040FEF71F
:101EC0006ABA10BD00440040FC000020FEE7FEE7B7
:101ED000704770470A46014664230148FFF793BEE6
:101EE000FC0000202DE9F041064698460D004FF415
:101EF000FA6012FB00F04FF48771B0FBF1F000F5CF
:101F0000FA7087B2306806D0042D06D0082D06D0AE
:101F1000006C84B217E0406BFBE7806BF9E7C06BA5
:101F2000F7E7BC4202D204EB080001E0A4EB080092
:101F300084B2B5B1042D17D03068082D17D00464D1
:101F40003220FEF7F7FBE01B00D540424045E8DCBD
:101F50007DB1042D10D03068082D10D00764BDE885
:101F6000F08130684463EBE730688463E8E7C4637A
:101F7000E6E730684763F2E730688763EFE7C763F7
:101F8000EDE7FEF7E7BC000030B593B030216846BE
:101F9000FEF74EF914210CA8FEF74AF91D4800255A
:101FA000016841F080510160006800F0805011909C
:101FB0001948016841F4804101600068022400F47E
:101FC0008040119001200090000401908001CDE933
:101FD000064008AA0420A82182E813000B90684656
:101FE000FEF73CFE08B172B6FEE70CA90F2081E8AF
:101FF00031004FF4A0500F904FF480501090052105
:102000000CA8FEF741FD002801D072B6FEE713B020
:1020100030BD0000403802400070004002480168B6
:1020200041F470010160704788ED00E00148FFF75E
:10203000EEB8000024000020F0B50268294C2A4DBB
:102040002A4E2B4F2B4B4FF0804CA04209D06045BD
:1020500007D0A84205D0B04203D0B84201D0984280
:1020600004D122F0700E4A6842EA0E02A0421BD050
:10207000604519D0A84217D0B04215D0B84213D04D
:10208000984211D01C4DA8420ED01C4DA8420BD036
:102090001B4DA84208D01B4DA84205D01A4DA8429E
:1020A00002D01A4DA84203D122F44075CA682A43CF
:1020B0004D6922F080022A4302608A68C2620A687F
:1020C0008262A04201D0984201D1096901630121D5
:1020D00041610169C90703D0016921F00101016172
:1020E000F0BD000000000140000400400008004076
:1020F000000C004000040140004001400044014049
:102100000048014000180040001C00400020004032
:1021100010B501F01F030121046A99408C43046249
:10212000016A9A401143016210BD10B5846842EA09
:10213000032224F47F440A432243826010BD826854
:1021400022F070020A4342F00701816070470000EC
:10215000F0B5036A026A22F00102026242688469F1
:10216000124E24F073050C682C4323F002058B6893
:102170002B430D4DA84201D0B04205D123F00807F2
:10218000CB683B4323F00403A84201D0B04205D101
:102190004D6922F4407215438A692A434260846182
:1021A000496841630362F0BD000001400004014042
:1021B000F0B5026A036A23F010030362436884697E
:1021C0000D6824F4E64444EA05248D6822F02002D8
:1021D00042EA05120F4D104EA84201D0B04206D17E
:1021E000CF6822F0800242EA071222F04002A842A1
:1021F00001D0B04207D14D6923F4406343EA85031F
:102200008D6943EA850343608461496881630262A2
:10221000F0BD00000000014000040140F0B5026A7A
:10222000036A23F4807303624368C46922F4007272
:1022300024F073050C68124E2C438D6842EA052287
:102240000E4DA84201D0B04206D1CF6822F4006200
:1022500042EA072222F48062A84201D0B04207D1AC
:102260004D6923F4405343EA05138D6943EA05138E
:102270004360C4614968C1630262F0BD000001406F
:102280000004014030B5046A026A22F480520262FE
:102290004268C3690D6823F4E64343EA05238D6869
:1022A00024F4005444EA0534084DA84202D0084DF5
:1022B000A84204D14D6922F4804242EA851242606C
:1022C000C36149680164046230BD00000000014040
:1022D0000004014010B5036A046A24F0010404629A
:1022E000846924F0F00444EA021423F00A020A4349
:1022F0008461026210BD10B5036A046A24F0100400
:102300000462846923F0A00324F4704444EA023296
:1023100043EA01118261016210BD10B5806B00219A
:10232000C185C184FFF796F910BD70B5846B206834
:10233000406994F84110C0F3C0100025212904D150
:1023400018B1E584204600F08EF82068406994F8C2
:102350004210C0F38010222904D118B1E58520462F
:1023600000F05AF8606C40F0100060642046FFF7FF
:1023700071F970BD10B50146806B096809684FF0AE
:102380000002C9052ED4C28501680C3151E8003F16
:1023900023F4807341E80034002CF5D10168143136
:1023A00051E8003F23F0010341E80034002CF5D14F
:1023B0000168143151E8003F23F0400341E8003444
:1023C000002CF5D1202180F84210016B012909D1A0
:1023D00001680C3151E8003F23F0100341E800345C
:1023E000002CF5D14263016B012902D0FFF750FBAD
:1023F00010BD818DFFF72DF910BD10B5806B012147
:102400004163016B012902D0FFF7FCFB10BD818DF8
:102410004908FFF71EF910BD01680C3151E8002F83
:1024200022F4907241E80023002BF5D101681431A9
:1024300051E8002F22F0010241E80023002BF5D1E2
:10244000016B012909D101680C3151E8002F22F0FC
:10245000100241E80023002BF5D1202180F8421022
:1024600000210163704701680C3151E8002F22F010
:10247000C00241E80023002BF5D1202180F8411053
:10248000704708B590F84210222901D0022008BDFB
:1024900082684FF480539A4201D1016921B1816A67
:1024A0009A421BD04AB10AE00268816A5268C2F3BC
:1024B00008020A80816A891C08E0026972B1026818
:1024C000526802F07F020A70816A491C8162C18DE4
:1024D000491E0904090CC18503D01BE0026852683B
:1024E000F1E70168CA6822F02002CA600168CA6880
:1024F00022F48072CA6001684A6922F001024A61CE
:10250000202180F8421000214163026B012A03D090
:10251000FFF7BEFA002008BD016301680C3151E8E5
:10252000002F22F0100241E80023002BF5D10168B2
:102530000A68D20602D50A6849680091818DFFF7C2
:1025400088F8E7E770B5044600680169E26821F49D
:102550004051114301612169A068E2690843616942
:10256000114308432168CA6849F20C639A43024345
:10257000CA6020684169A26921F440711143416138
:1025800031492068884202D03049884202D1FEF7A2
:1025900025FB01E0FEF712FBE26900231921642507
:1025A0003226B2F5004F626828D0A0FB0101930FDC
:1025B0009200FDF705FE0146B0FBF5F06FF0180242
:1025C000504301EB800006EB0010B0FBF5F000F08B
:1025D000F002B1FBF5F002EB0012B1FBF5F06FF089
:1025E0001803584301EB800006EB0010B0FBF5F038
:1025F00000F00F0021681044886070BDA0FB01014D
:1026000092185B41FDF7DCFD0146B0FBF5F00201DD
:10261000B1FBF5F06FF01803584301EB800006EBB7
:10262000C000B0FBF5F000F0F80002EB4002B1FB97
:10263000F5F0584301EB800006EBC000B0FBF5F06D
:1026400000F00700D6E70000001001400014014030
:1026500038B58162044682850020134660642222D8
:1026600084F84220E56B1B4AEA63E56B1A4A2A6448
:10267000E56B1A4AEA64E26B10650A462168E06B72
:10268000091DFEF71FF82068016840680090206966
:1026900048B120680C3050E8001F41F4807140E8D8
:1026A0000012002AF5D12068143050E8001F41F0D4
:1026B000010140E80012002AF5D12068143050E8EA
:1026C000001F41F0400140E80012002AF5D100202F
:1026D00038BD000075230008FB2300082B230008E9
:1026E0002DE9F843984617460D460446089E24E017
:1026F000701C22D0FEF728F9A0EB0800B0421AD8CF
:10270000CEB12068C168490717D5802D15D0402D5E
:1027100013D00168C94309070FD401680025406838
:1027200000902046FFF778FE0820606484F840504F
:102730000120BDE8F8830320FBE72068006835EA44
:10274000000004D00020B842D2D00020F1E70120E0
:10275000F9E700000148FEF77FBF0000B400002049
:102760000148FEF779BF0000FC000020FEE70000F2
:102770000FB4054B10B503A9044A029800F028F8DD
:1027800010BC5DF814FB000089290008200000201F
:102790000907090E002804DB00F1E02080F800148E
:1027A000704700F00F0000F1E02080F8141D704722
:1027B00002E008C8121F08C1002AFAD1704770470A
:1027C000002001E001C1121F002AFBD17047000068
:1027D0002DE9FF4F8BB09A460F460546002606E0CE
:1027E00025280BD052460D9990476D1C761C2878F1
:1027F0000028F5D10FB03046BDE8F08F0024A04688
:102800000122604900E0044315F8013F203B02FA31
:1028100003F00842F7D128782E2817D115F8010FB8
:1028200044F004042A280ED06FF02F022878A0F17B
:10283000300109290AD808EB880102EB410100EBBD
:1028400001086D1CF2E757F8048B6D1C2878692885
:102850003ED006DC0028CDD063280BD0642804D1FC
:1028600036E0732810D075284BD052460D9990470A
:10287000761C85E017F8040B8DF8000000208DF819
:102880000100E946012003E057F8049B4FF0FF30B8
:1028900061074FF0000401D40AE0641C44450DDADE
:1028A0008442FADB19F804100029F6D106E0641C12
:1028B0008442FCDB19F804100029F8D1264404E016
:1028C00019F8010B52460D999047641EF8D257E053
:1028D00001CF4FF00A0B002802DA40422D2102E01E
:1028E000210504D52B218DF82410012103E0E107F7
:1028F00005D02021F7E70DF1200908910CE0002117
:10290000F9E701CF4FF00A0BF9E75946FDF79BFCB9
:1029100001F1300209F8012D0028F6D1ADEB0900D4
:1029200000F1200B600701D44FF00108D84502DD0B
:10293000A8EB0B0000E000208046002406E009A878
:102940005246005D0D999047641C761C089884429D
:10295000F5DB04E0302052460D999047761CB8F123
:102960000001A8F10108F5DC05E019F8010B524659
:102970000D999047761CBBF10001ABF1010BF4DC23
:102980006D1C34E70928010013B54FF0FF33012215
:1029900069460248FFF737F900981CBDB4000020D3
:1029A000FDF7E0FFFFF7F0FAFFF7A6F9FFF77EF972
:1029B000FFF754FAFFF76EFAFFF7F2F9FFF7BAF9EB
:1029C0007B4940F2DC500A6850630A6890630968EA
:1029D000C86300217648FEF773FD04217448FEF7B2
:1029E0006FFD08217248FEF76BFD0622714972489F
:1029F000FFF740F86F490422091F7048FFF73AF8C3
:102A0000DFF8B0816E4D6F4F6F4CA8F104080026BF
:102A10004FF4FA792878012810D020780128F9D1CC
:102A20006A4800780028F5D13878012836D0022885
:102A300052D003286ED004287CD0A2E064A0FFF717
:102A400097FE2E701423872200215948FFF74AFA77
:102A50001423872204215648FFF744FA14238722BF
:102A600008215348FFF73EFA5CA0FFF781FE98F873
:102A70000200012806D0022806D0032806D0042828
:102A800006D008E058A004E05AA002E05CA000E0F4
:102A90005EA0FFF76DFE01202070C1E714232822FD
:102AA00008214348FFF71EFA1423FF220021404863
:102AB000FFF718FA1423962208213D48FFF712FA6F
:102AC0004846FDF737FE1423322200213848FFF72D
:102AD00009FA14239B224AE01423282208213448AF
:102AE000FFF700FA1423FF2200213148FFF7FAF91B
:102AF0001423962208212E48FFF7F4F94846FDF7E3
:102B000019FE1423322200212948FFF7EBF9142380
:102B1000C3222CE01423282208212548FFF7E2F9DC
:102B20001423FF2200212248FFF7DCF91423782226
:102B30000EE0FFE71423282208211D48FFF7D2F9F1
:102B40001423FF2200211A48FFF7CCF91423A022F6
:102B500008211748FFF7C6F94846FDF7EBFD142397
:102B6000322200211248FFF7BDF914236922042103
:102B70000F48FFF7B7F91423282208210C48FFF764
:102B8000B1F94846FDF7D6FD1423872200210848F5
:102B9000FFF7A8F91423872204210548FFF7A2F9BB
:102BA0001423872208210248FFF79CF9267031E799
:102BB0006C00002004000020B4000020FC00002075
:102BC0000D0000200B0000200A0000200C00002057
:102BD0006368616E6765210A00000000CAB6B1F043
:102BE000BEC0D5FDA3A10A00D3A6CEAAD6BDB0E52E
:102BF000A3A10A00D3A6CEAAB7CFD6BDA3A10A002F
:102C0000D3A6CEAAC6BFD7D3A3A10A00D3A6CEAA65
:102C1000B5E7B3D8A3A10A000006101600061016E7
:102C2000000000000000000001020304060708097C
:102C30000000000001020304582C000800000020DE
:102C400024000000B02700087C2C0008240000208D
:102C500014060000C027000800000000000000006B
:102C60000000000000000000010000001000000053
:0C2C7000000000000024F4000000000040
:040000050800018965
:00000001FF
